:100000000C943E000C9450000C9450000C94500042
:100010000C9450000C9450000C9450000C94500020
:100020000C9450000C9450000C9450000C94500010
:100030000C9450000C9450000C9450000C94500000
:100040000C9450000C9450000C9450000C945000F0
:100050000C9450000C9450000C9450000C945000E0
:100060000C9450000C945000610063006500670020
:1000700069006B006D006F007100730011241FBEDA
:10008000CFEFD8E0DEBFCDBF21E0A0E0B1E001C0FE
:100090001D92A430B207E1F70E94CD000C94DA0261
:1000A0000C94000082EE80937C0086E880937A00B6
:1000B00008958A309105C8F4FC01EC5CFF4F0C9464
:1000C000220180E411C089E70FC084E20DC080E303
:1000D0000BC089E109C082E107C082E005C088E762
:1000E00003C01BB8089580E18BB90895CF92DF92C9
:1000F000EF92FF920F931F93CF93DF938A30910576
:100100007CF16AE070E00E940E017B016C01CAE0A4
:10011000D0E001E012E0D0920301C092020105B9E3
:1001200080910201909103010E9459008FEC97E0A9
:100130000197F1F700C00000F0920301E092020184
:1001400015B980910201909103010E9459008FEC32
:1001500097E00197F1F700C000002197E1F614C085
:10016000909303018093020181E085B9809102019F
:1001700090910301DF91CF911F910F91FF90EF902C
:10018000DF90CF900C945900DF91CF911F910F9188
:10019000FF90EF90DF90CF9008958FEF8AB98BB9E1
:1001A00084B981E087B90E945200C1E080917A0051
:1001B000806480937A0080917A0086FDFCCF609104
:1001C000790070E080E090E00E94E1012BE734E1EB
:1001D0004EE25FE30E946D020E94A901072E000C0F
:1001E000880B990B0E94E10120E030E048EC50E4DC
:1001F0000E943C010E94A9018B01CB010E94760064
:10020000319903C086E290E002C08EE190E00817C9
:10021000190714F4C8B9CACF18B8C8CF97FB072E6E
:1002200016F4009407D077FD09D00E94280107FC3E
:1002300005D03EF4909581959F4F089570956195F6
:100240007F4F0895EE0FFF1F0590F491E02D099464
:10025000AA1BBB1B51E107C0AA1FBB1FA617B707EC
:1002600010F0A61BB70B881F991F5A95A9F7809508
:100270009095BC01CD0108955058BB27AA270E9434
:1002800054010C9433020E94250238F00E942C0283
:1002900020F039F49F3F19F426F40C9422020EF456
:1002A000E095E7FB0C941C02E92F0E94440258F3EE
:1002B000BA17620773078407950720F079F4A6F54B
:1002C0000C9466020EF4E0950B2EBA2FA02D0B01B4
:1002D000B90190010C01CA01A0011124FF27591B8B
:1002E00099F0593F50F4503E68F11A16F040A22F91
:1002F000232F342F4427585FF3CF46953795279502
:10030000A795F0405395C9F77EF41F16BA0B620B00
:10031000730B840BBAF09150A1F0FF0FBB1F661F47
:10032000771F881FC2F70EC0BA0F621F731F841F8A
:1003300048F4879577956795B795F7959E3F08F0B0
:10034000B0CF9395880F08F09927EE0F9795879572
:1003500008950E94B0016894B1110C946702089549
:100360000E944C0288F09F5798F0B92F9927B751F7
:10037000B0F0E1F0660F771F881F991F1AF0BA9549
:10038000C9F714C0B13091F00E946602B1E008953F
:100390000C946602672F782F8827B85F39F0B93F31
:1003A000CCF3869577956795B395D9F73EF49095FC
:1003B0008095709561957F4F8F4F9F4F0895E8947A
:1003C00009C097FB3EF490958095709561957F4F9D
:1003D0008F4F9F4F9923A9F0F92F96E9BB2793954B
:1003E000F695879577956795B795F111F8CFFAF45B
:1003F000BB0F11F460FF1BC06F5F7F4F8F4F9F4F8C
:1004000016C0882311F096E911C0772321F09EE8E9
:10041000872F762F05C0662371F096E8862F70E04F
:1004200060E02AF09A95660F771F881FDAF7880F29
:100430009695879597F9089597F99F6780E870E0FA
:1004400060E008959FEF80EC089500240A9416164A
:10045000170618060906089500240A9412161306B2
:10046000140605060895092E0394000C11F4882340
:1004700052F0BB0F40F4BF2B11F460FF04C06F5F5C
:100480007F4F8F4F9F4F089557FD9058440F551F32
:1004900059F05F3F71F04795880F97FB991F61F006
:1004A0009F3F79F087950895121613061406551F7D
:1004B000F2CF4695F1DF08C0161617061806991FE9
:1004C000F1CF86957105610508940895E894BB27DE
:1004D00066277727CB0197F908950E9480020C9434
:1004E00033020E94250238F00E942C0220F095234E
:1004F00011F00C941C020C94220211240C9467023B
:100500000E94440270F3959FC1F3950F50E0551F70
:10051000629FF001729FBB27F00DB11D639FAA2758
:10052000F00DB11DAA1F649F6627B00DA11D661FA7
:10053000829F2227B00DA11D621F739FB00DA11DC8
:10054000621F839FA00D611D221F749F3327A00D82
:10055000611D231F849F600D211D822F762F6A2F1E
:1005600011249F5750409AF0F1F088234AF0EE0F83
:10057000FF1FBB1F661F771F881F91505040A9F7B0
:100580009E3F510580F00C941C020C9467025F3F63
:10059000E4F3983ED4F3869577956795B795F795EC
:1005A000E7959F5FC1F7FE2B880F911D9695879564
:0805B00097F90895F894FFCFBC
:00000001FF
