:100000000C9434000C9451000C9451000C94510049
:100010000C9451000C9451000C9451000C9451001C
:100020000C9451000C9451000C9451000C9451000C
:100030000C9451000C9451000C9451000C945100FC
:100040000C9451000C9451000C9451000C945100EC
:100050000C9451000C9451000C9451000C945100DC
:100060000C9451000C94510011241FBECFEFD8E026
:10007000DEBFCDBF11E0A0E0B1E0E2ECF5E002C0F0
:1000800005900D92A431B107D9F721E0A4E1B1E0C8
:1000900001C01D92A631B207E1F70E94D7000C946F
:1000A000DF020C94000082EE80937C0086E880934F
:1000B0007A000895CF93DF93CDB7DEB764970FB67C
:1000C000F894DEBF0FBECDBF24E1E0E0F1E0DE0139
:1000D000119601900D922A95E1F7880F991FE1E0A2
:1000E000F0E0EC0FFD1FE80FF91F80818BB96496DB
:1000F0000FB6F894DEBF0FBECDBFDF91CF9108954C
:10010000CF92DF92EF92FF920F931F93CF93DF93E3
:100110008A3091057CF16AE070E00E9419017B0150
:100120006C01CAE0D0E002E011E0D0921501C0926B
:10013000140105B980911401909115010E945A0093
:100140008FEC97E00197F1F700C00000F0921501E5
:10015000E092140115B980911401909115010E944B
:100160005A008FEC97E00197F1F700C0000021974B
:10017000E1F614C0909315018093140181E085B9D4
:100180008091140190911501DF91CF911F910F91F2
:10019000FF90EF90DF90CF900C945A00DF91CF91B9
:1001A0001F910F91FF90EF90DF90CF9008958FEF08
:1001B0008AB98BB984B981E087B918B80E94530015
:1001C000C1E080917A00806480937A0080917A0007
:1001D00086FDFCCF6091790070E080E090E00E94A5
:1001E000E6012BE734E14EE25FE30E9472020E94D7
:1001F000AE01072E000C880B990B0E94E60120E04F
:1002000030E048EC50E40E9441010E94AE018B01B5
:10021000CB010E948000319903C086E290E002C0C9
:100220008EE190E00817190714F4C8B9CACF18B8BE
:10023000C8CF97FB072E16F4009407D077FD09D09E
:100240000E942D0107FC05D03EF4909581959F4FAB
:100250000895709561957F4F0895AA1BBB1B51E1CE
:1002600007C0AA1FBB1FA617B70710F0A61BB70B26
:10027000881F991F5A95A9F780959095BC01CD01CB
:1002800008955058BB27AA270E9459010C943802A0
:100290000E942A0238F00E94310220F039F49F3F78
:1002A00019F426F40C9427020EF4E095E7FB0C9465
:1002B0002102E92F0E94490258F3BA176207730717
:1002C0008407950720F079F4A6F50C946B020EF4E0
:1002D000E0950B2EBA2FA02D0B01B90190010C0156
:1002E000CA01A0011124FF27591B99F0593F50F46E
:1002F000503E68F11A16F040A22F232F342F4427C6
:10030000585FF3CF469537952795A795F0405395BD
:10031000C9F77EF41F16BA0B620B730B840BBAF08D
:100320009150A1F0FF0FBB1F661F771F881FC2F7F8
:100330000EC0BA0F621F731F841F48F4879577950C
:100340006795B795F7959E3F08F0B0CF9395880FC6
:1003500008F09927EE0F9795879508950E94B501AB
:100360006894B1110C946C0208950E94510288F0B7
:100370009F5798F0B92F9927B751B0F0E1F0660F69
:10038000771F881F991F1AF0BA95C9F714C0B130AA
:1003900091F00E946B02B1E008950C946B02672FFC
:1003A000782F8827B85F39F0B93FCCF386957795D9
:1003B0006795B395D9F73EF49095809570956195C2
:1003C0007F4F8F4F9F4F0895E89409C097FB3EF4ED
:1003D00090958095709561957F4F8F4F9F4F992392
:1003E000A9F0F92F96E9BB279395F6958795779510
:1003F0006795B795F111F8CFFAF4BB0F11F460FFD0
:100400001BC06F5F7F4F8F4F9F4F16C0882311F027
:1004100096E911C0772321F09EE8872F762F05C03B
:10042000662371F096E8862F70E060E02AF09A95D6
:10043000660F771F881FDAF7880F9695879597F9CB
:10044000089597F99F6780E870E060E008959FEF56
:1004500080EC089500240A9416161706180609065B
:10046000089500240A94121613061406050608952A
:10047000092E0394000C11F4882352F0BB0F40F4B2
:10048000BF2B11F460FF04C06F5F7F4F8F4F9F4FF2
:10049000089557FD9058440F551F59F05F3F71F074
:1004A0004795880F97FB991F61F09F3F79F08795DB
:1004B0000895121613061406551FF2CF4695F1DF64
:1004C00008C0161617061806991FF1CF86957105F4
:1004D000610508940895E894BB2766277727CB0128
:1004E00097F908950E9485020C9438020E942A020E
:1004F00038F00E94310220F0952311F00C94210273
:100500000C94270211240C946C020E94490270F38F
:10051000959FC1F3950F50E0551F629FF001729FA8
:10052000BB27F00DB11D639FAA27F00DB11DAA1FB7
:10053000649F6627B00DA11D661F829F2227B00D04
:10054000A11D621F739FB00DA11D621F839FA00D8F
:10055000611D221F749F3327A00D611D231F849FDF
:10056000600D211D822F762F6A2F11249F57504036
:100570009AF0F1F088234AF0EE0FFF1FBB1F661FB1
:10058000771F881F91505040A9F79E3F510580F07A
:100590000C9421020C946C025F3FE4F3983ED4F378
:1005A000869577956795B795F795E7959F5FC1F71E
:1005B000FE2B880F911D9695879597F90895F894CD
:0205C000FFCF6B
:1005C2000200CF0029004900C50051001100CB00F4
:0405D20000004100E4
:00000001FF
